{
  "contractName": "AdditionContract",
  "abi": [
    {
      "constant": true,
      "inputs": [],
      "name": "state",
      "outputs": [
        {
          "name": "",
          "type": "uint256"
        }
      ],
      "payable": false,
      "stateMutability": "view",
      "type": "function"
    },
    {
      "constant": false,
      "inputs": [
        {
          "name": "value1",
          "type": "uint256"
        }
      ],
      "name": "add",
      "outputs": [],
      "payable": false,
      "stateMutability": "nonpayable",
      "type": "function"
    },
    {
      "constant": true,
      "inputs": [],
      "name": "getState",
      "outputs": [
        {
          "name": "",
          "type": "uint256"
        }
      ],
      "payable": false,
      "stateMutability": "view",
      "type": "function"
    }
  ],
  "bytecode": "0x60806040526000805534801561001457600080fd5b50610117806100246000396000f3006080604052600436106053576000357c0100000000000000000000000000000000000000000000000000000000900463ffffffff1680631003e2d21460585780631865c57d146082578063c19d93fb1460aa575b600080fd5b348015606357600080fd5b5060806004803603810190808035906020019092919050505060d2565b005b348015608d57600080fd5b50609460dc565b6040518082815260200191505060405180910390f35b34801560b557600080fd5b5060bc60e5565b6040518082815260200191505060405180910390f35b8060008190555050565b60008054905090565b600054815600a165627a7a72305820b47272283b21c0dd54e607a8fe558151f86482079149aaaae9a3ffb83cacc1bb0029",
  "source": "pragma solidity ^0.4.18;\n\ncontract AdditionContract {\n  uint public state = 0;\n\n  function add(uint value1) public {\n    state = value1;\n  }\n\n  function getState() public constant returns (uint) {\n      return state;\n  }\n}\n",
  "sourcePath": "/home/abdullah/Downloads/devnet/workspace/contracts/AdditionContract.sol",
  "compiler": {
    "name": "solc",
    "version": "0.4.24+commit.e67f0147.Emscripten.clang"
  },
  "schemaVersion": "2.0.1",
  "updatedAt": "2018-11-20T19:28:39.228Z"
}