{
  "contractName": "Arduino",
  "abi": [
    {
      "constant": true,
      "inputs": [],
      "name": "state",
      "outputs": [
        {
          "name": "",
          "type": "uint256"
        }
      ],
      "payable": false,
      "stateMutability": "view",
      "type": "function"
    },
    {
      "constant": false,
      "inputs": [
        {
          "name": "value",
          "type": "uint256"
        }
      ],
      "name": "input1",
      "outputs": [],
      "payable": false,
      "stateMutability": "nonpayable",
      "type": "function"
    },
    {
      "constant": true,
      "inputs": [],
      "name": "getState",
      "outputs": [
        {
          "name": "",
          "type": "uint256"
        }
      ],
      "payable": false,
      "stateMutability": "view",
      "type": "function"
    }
  ],
  "bytecode": "0x608060405234801561001057600080fd5b50610147806100206000396000f300608060405260043610610057576000357c0100000000000000000000000000000000000000000000000000000000900463ffffffff1680631865c57d1461005c5780634c3a734714610087578063c19d93fb146100b4575b600080fd5b34801561006857600080fd5b506100716100df565b6040518082815260200191505060405180910390f35b34801561009357600080fd5b506100b2600480360381019080803590602001909291905050506100e8565b005b3480156100c057600080fd5b506100c9610115565b6040518082815260200191505060405180910390f35b60008054905090565b6032811115156100ff576001600081905550610112565b60648110151561011157600080819055505b5b50565b600054815600a165627a7a72305820092501d7c6045233e17f9e7a86180e2512bd226c537cd479e5ff289aa899f8890029",
  "source": "pragma solidity ^0.4.18;\n\ncontract Arduino {\n    uint public state;\nfunction input1(uint value) public{\n\n        if(value <= 50) {\n          state = 1;\n        } else if (value >= 100 ) {\n          state = 0; \n        }\n}\nfunction getState() public constant returns (uint) {\n      return state;\n  }\n}\n\n",
  "sourcePath": "/home/abdullah/Downloads/devnet/workspace/contracts/Arduino.sol",
  "compiler": {
    "name": "solc",
    "version": "0.4.24+commit.e67f0147.Emscripten.clang"
  },
  "schemaVersion": "2.0.1",
  "updatedAt": "2018-11-20T19:28:59.470Z"
}